{
	"_format": "hh-sol-artifact-1",
	"contractName": "Airline",
	"sourceName": "contracts/Airline.sol",
	"abi": [
		{
			"inputs": [],
			"stateMutability": "nonpayable",
			"type": "constructor"
		},
		{
			"anonymous": false,
			"inputs": [
				{
					"indexed": true,
					"internalType": "address",
					"name": "owner",
					"type": "address"
				},
				{
					"indexed": true,
					"internalType": "address",
					"name": "approved",
					"type": "address"
				},
				{
					"indexed": true,
					"internalType": "uint256",
					"name": "tokenId",
					"type": "uint256"
				}
			],
			"name": "Approval",
			"type": "event"
		},
		{
			"anonymous": false,
			"inputs": [
				{
					"indexed": true,
					"internalType": "address",
					"name": "owner",
					"type": "address"
				},
				{
					"indexed": true,
					"internalType": "address",
					"name": "operator",
					"type": "address"
				},
				{
					"indexed": false,
					"internalType": "bool",
					"name": "approved",
					"type": "bool"
				}
			],
			"name": "ApprovalForAll",
			"type": "event"
		},
		{
			"anonymous": false,
			"inputs": [
				{
					"indexed": true,
					"internalType": "address",
					"name": "previousOwner",
					"type": "address"
				},
				{
					"indexed": true,
					"internalType": "address",
					"name": "newOwner",
					"type": "address"
				}
			],
			"name": "OwnershipTransferred",
			"type": "event"
		},
		{
			"anonymous": false,
			"inputs": [
				{
					"indexed": true,
					"internalType": "address",
					"name": "from",
					"type": "address"
				},
				{
					"indexed": true,
					"internalType": "address",
					"name": "to",
					"type": "address"
				},
				{
					"indexed": true,
					"internalType": "uint256",
					"name": "tokenId",
					"type": "uint256"
				}
			],
			"name": "Transfer",
			"type": "event"
		},
		{
			"inputs": [
				{
					"internalType": "address",
					"name": "to",
					"type": "address"
				},
				{
					"internalType": "uint256",
					"name": "tokenId",
					"type": "uint256"
				}
			],
			"name": "approve",
			"outputs": [],
			"stateMutability": "nonpayable",
			"type": "function"
		},
		{
			"inputs": [
				{
					"internalType": "address",
					"name": "owner",
					"type": "address"
				}
			],
			"name": "balanceOf",
			"outputs": [
				{
					"internalType": "uint256",
					"name": "",
					"type": "uint256"
				}
			],
			"stateMutability": "view",
			"type": "function"
		},
		{
			"inputs": [],
			"name": "fetchMyNFTs",
			"outputs": [
				{
					"components": [
						{
							"internalType": "uint256",
							"name": "price",
							"type": "uint256"
						},
						{
							"internalType": "string",
							"name": "uri",
							"type": "string"
						},
						{
							"internalType": "address",
							"name": "buyer",
							"type": "address"
						}
					],
					"internalType": "struct Airline.NFT[]",
					"name": "",
					"type": "tuple[]"
				}
			],
			"stateMutability": "view",
			"type": "function"
		},
		{
			"inputs": [
				{
					"internalType": "uint256",
					"name": "tokenId",
					"type": "uint256"
				}
			],
			"name": "getApproved",
			"outputs": [
				{
					"internalType": "address",
					"name": "",
					"type": "address"
				}
			],
			"stateMutability": "view",
			"type": "function"
		},
		{
			"inputs": [
				{
					"internalType": "address",
					"name": "owner",
					"type": "address"
				},
				{
					"internalType": "address",
					"name": "operator",
					"type": "address"
				}
			],
			"name": "isApprovedForAll",
			"outputs": [
				{
					"internalType": "bool",
					"name": "",
					"type": "bool"
				}
			],
			"stateMutability": "view",
			"type": "function"
		},
		{
			"inputs": [],
			"name": "name",
			"outputs": [
				{
					"internalType": "string",
					"name": "",
					"type": "string"
				}
			],
			"stateMutability": "view",
			"type": "function"
		},
		{
			"inputs": [],
			"name": "owner",
			"outputs": [
				{
					"internalType": "address",
					"name": "",
					"type": "address"
				}
			],
			"stateMutability": "view",
			"type": "function"
		},
		{
			"inputs": [
				{
					"internalType": "uint256",
					"name": "tokenId",
					"type": "uint256"
				}
			],
			"name": "ownerOf",
			"outputs": [
				{
					"internalType": "address",
					"name": "",
					"type": "address"
				}
			],
			"stateMutability": "view",
			"type": "function"
		},
		{
			"inputs": [
				{
					"components": [
						{
							"internalType": "string",
							"name": "api",
							"type": "string"
						},
						{
							"internalType": "bytes",
							"name": "signature",
							"type": "bytes"
						}
					],
					"internalType": "struct Airline.AirlineNFTVoucher",
					"name": "voucher",
					"type": "tuple"
				}
			],
			"name": "recover",
			"outputs": [
				{
					"internalType": "address",
					"name": "",
					"type": "address"
				}
			],
			"stateMutability": "view",
			"type": "function"
		},
		{
			"inputs": [],
			"name": "renounceOwnership",
			"outputs": [],
			"stateMutability": "nonpayable",
			"type": "function"
		},
		{
			"inputs": [
				{
					"components": [
						{
							"internalType": "string",
							"name": "api",
							"type": "string"
						},
						{
							"internalType": "bytes",
							"name": "signature",
							"type": "bytes"
						}
					],
					"internalType": "struct Airline.AirlineNFTVoucher",
					"name": "voucher",
					"type": "tuple"
				},
				{
					"components": [
						{
							"internalType": "uint256",
							"name": "price",
							"type": "uint256"
						},
						{
							"internalType": "string[]",
							"name": "uri",
							"type": "string[]"
						},
						{
							"internalType": "address",
							"name": "buyer",
							"type": "address"
						}
					],
					"internalType": "struct Airline.AirlineNFT",
					"name": "nft",
					"type": "tuple"
				}
			],
			"name": "safeMint",
			"outputs": [],
			"stateMutability": "payable",
			"type": "function"
		},
		{
			"inputs": [
				{
					"internalType": "address",
					"name": "from",
					"type": "address"
				},
				{
					"internalType": "address",
					"name": "to",
					"type": "address"
				},
				{
					"internalType": "uint256",
					"name": "tokenId",
					"type": "uint256"
				}
			],
			"name": "safeTransferFrom",
			"outputs": [],
			"stateMutability": "nonpayable",
			"type": "function"
		},
		{
			"inputs": [
				{
					"internalType": "address",
					"name": "from",
					"type": "address"
				},
				{
					"internalType": "address",
					"name": "to",
					"type": "address"
				},
				{
					"internalType": "uint256",
					"name": "tokenId",
					"type": "uint256"
				},
				{
					"internalType": "bytes",
					"name": "data",
					"type": "bytes"
				}
			],
			"name": "safeTransferFrom",
			"outputs": [],
			"stateMutability": "nonpayable",
			"type": "function"
		},
		{
			"inputs": [
				{
					"internalType": "address",
					"name": "operator",
					"type": "address"
				},
				{
					"internalType": "bool",
					"name": "approved",
					"type": "bool"
				}
			],
			"name": "setApprovalForAll",
			"outputs": [],
			"stateMutability": "nonpayable",
			"type": "function"
		},
		{
			"inputs": [
				{
					"internalType": "bytes4",
					"name": "interfaceId",
					"type": "bytes4"
				}
			],
			"name": "supportsInterface",
			"outputs": [
				{
					"internalType": "bool",
					"name": "",
					"type": "bool"
				}
			],
			"stateMutability": "view",
			"type": "function"
		},
		{
			"inputs": [],
			"name": "symbol",
			"outputs": [
				{
					"internalType": "string",
					"name": "",
					"type": "string"
				}
			],
			"stateMutability": "view",
			"type": "function"
		},
		{
			"inputs": [
				{
					"internalType": "uint256",
					"name": "tokenId",
					"type": "uint256"
				}
			],
			"name": "tokenURI",
			"outputs": [
				{
					"internalType": "string",
					"name": "",
					"type": "string"
				}
			],
			"stateMutability": "view",
			"type": "function"
		},
		{
			"inputs": [
				{
					"internalType": "address",
					"name": "from",
					"type": "address"
				},
				{
					"internalType": "address",
					"name": "to",
					"type": "address"
				},
				{
					"internalType": "uint256",
					"name": "tokenId",
					"type": "uint256"
				}
			],
			"name": "transferFrom",
			"outputs": [],
			"stateMutability": "nonpayable",
			"type": "function"
		},
		{
			"inputs": [
				{
					"internalType": "address",
					"name": "newOwner",
					"type": "address"
				}
			],
			"name": "transferOwnership",
			"outputs": [],
			"stateMutability": "nonpayable",
			"type": "function"
		}
	],
	"bytecode": "0x6101406040523480156200001257600080fd5b506040518060400160405280600e81526020017f4169726c696e655469636b6574730000000000000000000000000000000000008152506040518060400160405280600181526020017f31000000000000000000000000000000000000000000000000000000000000008152506040518060400160405280600781526020017f4169726c696e65000000000000000000000000000000000000000000000000008152506040518060400160405280600381526020017f41544b00000000000000000000000000000000000000000000000000000000008152508160009081620000fc9190620005ae565b5080600190816200010e9190620005ae565b50505062000131620001256200022a60201b60201c565b6200023260201b60201c565b60008280519060200120905060008280519060200120905060007f8b73c3c69bb8fe3d512ecc4cf759cc79239f7b179b0ffacaa9a75d522b39400f90508260e081815250508161010081815250504660a081815250506200019a818484620002f860201b60201c565b608081815250503073ffffffffffffffffffffffffffffffffffffffff1660c08173ffffffffffffffffffffffffffffffffffffffff1681525050806101208181525050505050505033600860006101000a81548173ffffffffffffffffffffffffffffffffffffffff021916908373ffffffffffffffffffffffffffffffffffffffff16021790555062000763565b600033905090565b6000600760009054906101000a900473ffffffffffffffffffffffffffffffffffffffff16905081600760006101000a81548173ffffffffffffffffffffffffffffffffffffffff021916908373ffffffffffffffffffffffffffffffffffffffff1602179055508173ffffffffffffffffffffffffffffffffffffffff168173ffffffffffffffffffffffffffffffffffffffff167f8be0079c531659141344cd1fd0a4f28419497f9722a3daafe3b4186f6b6457e060405160405180910390a35050565b600083838346306040516020016200031595949392919062000706565b6040516020818303038152906040528051906020012090509392505050565b600081519050919050565b7f4e487b7100000000000000000000000000000000000000000000000000000000600052604160045260246000fd5b7f4e487b7100000000000000000000000000000000000000000000000000000000600052602260045260246000fd5b60006002820490506001821680620003b657607f821691505b602082108103620003cc57620003cb6200036e565b5b50919050565b60008190508160005260206000209050919050565b60006020601f8301049050919050565b600082821b905092915050565b600060088302620004367fffffffffffffffffffffffffffffffffffffffffffffffffffffffffffffffff82620003f7565b620004428683620003f7565b95508019841693508086168417925050509392505050565b6000819050919050565b6000819050919050565b60006200048f6200048962000483846200045a565b62000464565b6200045a565b9050919050565b6000819050919050565b620004ab836200046e565b620004c3620004ba8262000496565b84845462000404565b825550505050565b600090565b620004da620004cb565b620004e7818484620004a0565b505050565b5b818110156200050f5762000503600082620004d0565b600181019050620004ed565b5050565b601f8211156200055e576200052881620003d2565b6200053384620003e7565b8101602085101562000543578190505b6200055b6200055285620003e7565b830182620004ec565b50505b505050565b600082821c905092915050565b6000620005836000198460080262000563565b1980831691505092915050565b60006200059e838362000570565b9150826002028217905092915050565b620005b98262000334565b67ffffffffffffffff811115620005d557620005d46200033f565b5b620005e182546200039d565b620005ee82828562000513565b600060209050601f83116001811462000626576000841562000611578287015190505b6200061d858262000590565b8655506200068d565b601f1984166200063686620003d2565b60005b82811015620006605784890151825560018201915060208501945060208101905062000639565b868310156200068057848901516200067c601f89168262000570565b8355505b6001600288020188555050505b505050505050565b6000819050919050565b620006aa8162000695565b82525050565b620006bb816200045a565b82525050565b600073ffffffffffffffffffffffffffffffffffffffff82169050919050565b6000620006ee82620006c1565b9050919050565b6200070081620006e1565b82525050565b600060a0820190506200071d60008301886200069f565b6200072c60208301876200069f565b6200073b60408301866200069f565b6200074a6060830185620006b0565b620007596080830184620006f5565b9695505050505050565b60805160a05160c05160e051610100516101205161440d620007b36000396000611f4501526000611f8701526000611f6601526000611e9b01526000611ef101526000611f1a015261440d6000f3fe6080604052600436106101145760003560e01c80636352211e116100a0578063a22cb46511610064578063a22cb465146103a4578063b88d4fde146103cd578063c87b56dd146103f6578063e985e9c514610433578063f2fde38b1461047057610114565b80636352211e146102bd57806370a08231146102fa578063715018a6146103375780638da5cb5b1461034e57806395d89b411461037957610114565b8063202e3740116100e7578063202e3740146101e757806323b872dd1461021257806342842e0e1461023b5780635528e70c1461026457806360f453eb1461028057610114565b806301ffc9a71461011957806306fdde0314610156578063081812fc14610181578063095ea7b3146101be575b600080fd5b34801561012557600080fd5b50610140600480360381019061013b91906129c1565b610499565b60405161014d9190612a09565b60405180910390f35b34801561016257600080fd5b5061016b61057b565b6040516101789190612ab4565b60405180910390f35b34801561018d57600080fd5b506101a860048036038101906101a39190612b0c565b61060d565b6040516101b59190612b7a565b60405180910390f35b3480156101ca57600080fd5b506101e560048036038101906101e09190612bc1565b610653565b005b3480156101f357600080fd5b506101fc61076a565b6040516102099190612d7b565b60405180910390f35b34801561021e57600080fd5b5061023960048036038101906102349190612d9d565b610a6d565b005b34801561024757600080fd5b50610262600480360381019061025d9190612d9d565b610acd565b005b61027e60048036038101906102799190612e33565b610aed565b005b34801561028c57600080fd5b506102a760048036038101906102a29190612eab565b610ded565b6040516102b49190612b7a565b60405180910390f35b3480156102c957600080fd5b506102e460048036038101906102df9190612b0c565b610ed2565b6040516102f19190612b7a565b60405180910390f35b34801561030657600080fd5b50610321600480360381019061031c9190612ef4565b610f58565b60405161032e9190612f30565b60405180910390f35b34801561034357600080fd5b5061034c61100f565b005b34801561035a57600080fd5b50610363611023565b6040516103709190612b7a565b60405180910390f35b34801561038557600080fd5b5061038e61104d565b60405161039b9190612ab4565b60405180910390f35b3480156103b057600080fd5b506103cb60048036038101906103c69190612f77565b6110df565b005b3480156103d957600080fd5b506103f460048036038101906103ef91906130ec565b6110f5565b005b34801561040257600080fd5b5061041d60048036038101906104189190612b0c565b611157565b60405161042a9190612ab4565b60405180910390f35b34801561043f57600080fd5b5061045a6004803603810190610455919061316f565b611169565b6040516104679190612a09565b60405180910390f35b34801561047c57600080fd5b5061049760048036038101906104929190612ef4565b6111fd565b005b60007f80ac58cd000000000000000000000000000000000000000000000000000000007bffffffffffffffffffffffffffffffffffffffffffffffffffffffff1916827bffffffffffffffffffffffffffffffffffffffffffffffffffffffff1916148061056457507f5b5e139f000000000000000000000000000000000000000000000000000000007bffffffffffffffffffffffffffffffffffffffffffffffffffffffff1916827bffffffffffffffffffffffffffffffffffffffffffffffffffffffff1916145b80610574575061057382611280565b5b9050919050565b60606000805461058a906131de565b80601f01602080910402602001604051908101604052809291908181526020018280546105b6906131de565b80156106035780601f106105d857610100808354040283529160200191610603565b820191906000526020600020905b8154815290600101906020018083116105e657829003601f168201915b5050505050905090565b6000610618826112ea565b6004600083815260200190815260200160002060009054906101000a900473ffffffffffffffffffffffffffffffffffffffff169050919050565b600061065e82610ed2565b90508073ffffffffffffffffffffffffffffffffffffffff168373ffffffffffffffffffffffffffffffffffffffff16036106ce576040517f08c379a00000000000000000000000000000000000000000000000000000000081526004016106c590613281565b60405180910390fd5b8073ffffffffffffffffffffffffffffffffffffffff166106ed611335565b73ffffffffffffffffffffffffffffffffffffffff16148061071c575061071b81610716611335565b611169565b5b61075b576040517f08c379a000000000000000000000000000000000000000000000000000000000815260040161075290613313565b60405180910390fd5b610765838361133d565b505050565b60606000610778600a6113f6565b905060008060005b83811015610820573373ffffffffffffffffffffffffffffffffffffffff16600960006001846107b09190613362565b815260200190815260200160002060020160009054906101000a900473ffffffffffffffffffffffffffffffffffffffff1673ffffffffffffffffffffffffffffffffffffffff160361080d5760018361080a9190613362565b92505b808061081890613396565b915050610780565b5060008267ffffffffffffffff81111561083d5761083c612fc1565b5b60405190808252806020026020018201604052801561087657816020015b61086361291e565b81526020019060019003908161085b5790505b50905060005b84811015610a62573373ffffffffffffffffffffffffffffffffffffffff16600960006001846108ac9190613362565b815260200190815260200160002060020160009054906101000a900473ffffffffffffffffffffffffffffffffffffffff1673ffffffffffffffffffffffffffffffffffffffff1603610a4f5760006001826109089190613362565b905060006009600083815260200190815260200160002090508060405180606001604052908160008201548152602001600182018054610947906131de565b80601f0160208091040260200160405190810160405280929190818152602001828054610973906131de565b80156109c05780601f10610995576101008083540402835291602001916109c0565b820191906000526020600020905b8154815290600101906020018083116109a357829003601f168201915b505050505081526020016002820160009054906101000a900473ffffffffffffffffffffffffffffffffffffffff1673ffffffffffffffffffffffffffffffffffffffff1673ffffffffffffffffffffffffffffffffffffffff1681525050848681518110610a3257610a316133de565b5b6020026020010181905250600185610a4a9190613362565b945050505b8080610a5a90613396565b91505061087c565b508094505050505090565b610a7e610a78611335565b82611404565b610abd576040517f08c379a0000000000000000000000000000000000000000000000000000000008152600401610ab49061347f565b60405180910390fd5b610ac8838383611499565b505050565b610ae8838383604051806020016040528060008152506110f5565b505050565b610af682610ded565b73ffffffffffffffffffffffffffffffffffffffff16600860009054906101000a900473ffffffffffffffffffffffffffffffffffffffff1673ffffffffffffffffffffffffffffffffffffffff1614610b85576040517f08c379a0000000000000000000000000000000000000000000000000000000008152600401610b7c906134eb565b60405180910390fd5b8060000135341015610bcc576040517f08c379a0000000000000000000000000000000000000000000000000000000008152600401610bc390613557565b60405180910390fd5b60005b818060200190610bdf9190613586565b9050811015610de857610bf2600a611792565b6000610bfe600a6113f6565b9050604051806060016040528084600001358152602001848060200190610c259190613586565b85818110610c3657610c356133de565b5b9050602002810190610c4891906135e9565b8080601f016020809104026020016040519081016040528093929190818152602001838380828437600081840152601f19601f820116905080830192505050505050508152602001846040016020810190610ca39190612ef4565b73ffffffffffffffffffffffffffffffffffffffff1681525060096000838152602001908152602001600020600082015181600001556020820151816001019081610cee91906137f8565b5060408201518160020160006101000a81548173ffffffffffffffffffffffffffffffffffffffff021916908373ffffffffffffffffffffffffffffffffffffffff160217905550905050610d55836040016020810190610d4f9190612ef4565b826117a8565b610dd481848060200190610d699190613586565b85818110610d7a57610d796133de565b5b9050602002810190610d8c91906135e9565b8080601f016020809104026020016040519081016040528093929190818152602001838380828437600081840152601f19601f820116905080830192505050505050506117c6565b508080610de090613396565b915050610bcf565b505050565b600080610e667fc7f16f1264ede12060f8e7ce547151a60d80980bf0f903a37913264d7f331670848060000190610e2491906135e9565b604051610e329291906138fa565b6040518091039020604051602001610e4b92919061392c565b60405160208183030381529060405280519060200120611833565b90506000610ec682858060200190610e7e9190613955565b8080601f016020809104026020016040519081016040528093929190818152602001838380828437600081840152601f19601f8201169050808301925050505050505061184d565b90508092505050919050565b600080610ede83611874565b9050600073ffffffffffffffffffffffffffffffffffffffff168173ffffffffffffffffffffffffffffffffffffffff1603610f4f576040517f08c379a0000000000000000000000000000000000000000000000000000000008152600401610f4690613a04565b60405180910390fd5b80915050919050565b60008073ffffffffffffffffffffffffffffffffffffffff168273ffffffffffffffffffffffffffffffffffffffff1603610fc8576040517f08c379a0000000000000000000000000000000000000000000000000000000008152600401610fbf90613a96565b60405180910390fd5b600360008373ffffffffffffffffffffffffffffffffffffffff1673ffffffffffffffffffffffffffffffffffffffff168152602001908152602001600020549050919050565b6110176118b1565b611021600061192f565b565b6000600760009054906101000a900473ffffffffffffffffffffffffffffffffffffffff16905090565b60606001805461105c906131de565b80601f0160208091040260200160405190810160405280929190818152602001828054611088906131de565b80156110d55780601f106110aa576101008083540402835291602001916110d5565b820191906000526020600020905b8154815290600101906020018083116110b857829003601f168201915b5050505050905090565b6110f16110ea611335565b83836119f5565b5050565b611106611100611335565b83611404565b611145576040517f08c379a000000000000000000000000000000000000000000000000000000000815260040161113c9061347f565b60405180910390fd5b61115184848484611b61565b50505050565b606061116282611bbd565b9050919050565b6000600560008473ffffffffffffffffffffffffffffffffffffffff1673ffffffffffffffffffffffffffffffffffffffff16815260200190815260200160002060008373ffffffffffffffffffffffffffffffffffffffff1673ffffffffffffffffffffffffffffffffffffffff16815260200190815260200160002060009054906101000a900460ff16905092915050565b6112056118b1565b600073ffffffffffffffffffffffffffffffffffffffff168173ffffffffffffffffffffffffffffffffffffffff1603611274576040517f08c379a000000000000000000000000000000000000000000000000000000000815260040161126b90613b28565b60405180910390fd5b61127d8161192f565b50565b60007f01ffc9a7000000000000000000000000000000000000000000000000000000007bffffffffffffffffffffffffffffffffffffffffffffffffffffffff1916827bffffffffffffffffffffffffffffffffffffffffffffffffffffffff1916149050919050565b6112f381611ccf565b611332576040517f08c379a000000000000000000000000000000000000000000000000000000000815260040161132990613a04565b60405180910390fd5b50565b600033905090565b816004600083815260200190815260200160002060006101000a81548173ffffffffffffffffffffffffffffffffffffffff021916908373ffffffffffffffffffffffffffffffffffffffff160217905550808273ffffffffffffffffffffffffffffffffffffffff166113b083610ed2565b73ffffffffffffffffffffffffffffffffffffffff167f8c5be1e5ebec7d5bd14f71427d1e84f3dd0314c0f7b2291e5b200ac8c7c3b92560405160405180910390a45050565b600081600001549050919050565b60008061141083610ed2565b90508073ffffffffffffffffffffffffffffffffffffffff168473ffffffffffffffffffffffffffffffffffffffff16148061145257506114518185611169565b5b8061149057508373ffffffffffffffffffffffffffffffffffffffff166114788461060d565b73ffffffffffffffffffffffffffffffffffffffff16145b91505092915050565b8273ffffffffffffffffffffffffffffffffffffffff166114b982610ed2565b73ffffffffffffffffffffffffffffffffffffffff161461150f576040517f08c379a000000000000000000000000000000000000000000000000000000000815260040161150690613bba565b60405180910390fd5b600073ffffffffffffffffffffffffffffffffffffffff168273ffffffffffffffffffffffffffffffffffffffff160361157e576040517f08c379a000000000000000000000000000000000000000000000000000000000815260040161157590613c4c565b60405180910390fd5b61158b8383836001611d10565b8273ffffffffffffffffffffffffffffffffffffffff166115ab82610ed2565b73ffffffffffffffffffffffffffffffffffffffff1614611601576040517f08c379a00000000000000000000000000000000000000000000000000000000081526004016115f890613bba565b60405180910390fd5b6004600082815260200190815260200160002060006101000a81549073ffffffffffffffffffffffffffffffffffffffff02191690556001600360008573ffffffffffffffffffffffffffffffffffffffff1673ffffffffffffffffffffffffffffffffffffffff168152602001908152602001600020600082825403925050819055506001600360008473ffffffffffffffffffffffffffffffffffffffff1673ffffffffffffffffffffffffffffffffffffffff16815260200190815260200160002060008282540192505081905550816002600083815260200190815260200160002060006101000a81548173ffffffffffffffffffffffffffffffffffffffff021916908373ffffffffffffffffffffffffffffffffffffffff160217905550808273ffffffffffffffffffffffffffffffffffffffff168473ffffffffffffffffffffffffffffffffffffffff167fddf252ad1be2c89b69c2b068fc378daa952ba7f163c4a11628f55a4df523b3ef60405160405180910390a461178d8383836001611e36565b505050565b6001816000016000828254019250508190555050565b6117c2828260405180602001604052806000815250611e3c565b5050565b6117cf82611ccf565b61180e576040517f08c379a000000000000000000000000000000000000000000000000000000000815260040161180590613cde565b60405180910390fd5b8060066000848152602001908152602001600020908161182e91906137f8565b505050565b6000611846611840611e97565b83611fb1565b9050919050565b600080600061185c8585611fe4565b9150915061186981612035565b819250505092915050565b60006002600083815260200190815260200160002060009054906101000a900473ffffffffffffffffffffffffffffffffffffffff169050919050565b6118b9611335565b73ffffffffffffffffffffffffffffffffffffffff166118d7611023565b73ffffffffffffffffffffffffffffffffffffffff161461192d576040517f08c379a000000000000000000000000000000000000000000000000000000000815260040161192490613d4a565b60405180910390fd5b565b6000600760009054906101000a900473ffffffffffffffffffffffffffffffffffffffff16905081600760006101000a81548173ffffffffffffffffffffffffffffffffffffffff021916908373ffffffffffffffffffffffffffffffffffffffff1602179055508173ffffffffffffffffffffffffffffffffffffffff168173ffffffffffffffffffffffffffffffffffffffff167f8be0079c531659141344cd1fd0a4f28419497f9722a3daafe3b4186f6b6457e060405160405180910390a35050565b8173ffffffffffffffffffffffffffffffffffffffff168373ffffffffffffffffffffffffffffffffffffffff1603611a63576040517f08c379a0000000000000000000000000000000000000000000000000000000008152600401611a5a90613db6565b60405180910390fd5b80600560008573ffffffffffffffffffffffffffffffffffffffff1673ffffffffffffffffffffffffffffffffffffffff16815260200190815260200160002060008473ffffffffffffffffffffffffffffffffffffffff1673ffffffffffffffffffffffffffffffffffffffff16815260200190815260200160002060006101000a81548160ff0219169083151502179055508173ffffffffffffffffffffffffffffffffffffffff168373ffffffffffffffffffffffffffffffffffffffff167f17307eab39ab6107e8899845ad3d59bd9653f200f220920489ca2b5937696c3183604051611b549190612a09565b60405180910390a3505050565b611b6c848484611499565b611b788484848461219b565b611bb7576040517f08c379a0000000000000000000000000000000000000000000000000000000008152600401611bae90613e48565b60405180910390fd5b50505050565b6060611bc8826112ea565b6000600660008481526020019081526020016000208054611be8906131de565b80601f0160208091040260200160405190810160405280929190818152602001828054611c14906131de565b8015611c615780601f10611c3657610100808354040283529160200191611c61565b820191906000526020600020905b815481529060010190602001808311611c4457829003601f168201915b505050505090506000611c72612322565b90506000815103611c87578192505050611cca565b600082511115611cbc578082604051602001611ca4929190613ea4565b60405160208183030381529060405292505050611cca565b611cc584612339565b925050505b919050565b60008073ffffffffffffffffffffffffffffffffffffffff16611cf183611874565b73ffffffffffffffffffffffffffffffffffffffff1614159050919050565b6001811115611e3057600073ffffffffffffffffffffffffffffffffffffffff168473ffffffffffffffffffffffffffffffffffffffff1614611da45780600360008673ffffffffffffffffffffffffffffffffffffffff1673ffffffffffffffffffffffffffffffffffffffff1681526020019081526020016000206000828254611d9c9190613ec8565b925050819055505b600073ffffffffffffffffffffffffffffffffffffffff168373ffffffffffffffffffffffffffffffffffffffff1614611e2f5780600360008573ffffffffffffffffffffffffffffffffffffffff1673ffffffffffffffffffffffffffffffffffffffff1681526020019081526020016000206000828254611e279190613362565b925050819055505b5b50505050565b50505050565b611e4683836123a1565b611e53600084848461219b565b611e92576040517f08c379a0000000000000000000000000000000000000000000000000000000008152600401611e8990613e48565b60405180910390fd5b505050565b60007f000000000000000000000000000000000000000000000000000000000000000073ffffffffffffffffffffffffffffffffffffffff163073ffffffffffffffffffffffffffffffffffffffff16148015611f1357507f000000000000000000000000000000000000000000000000000000000000000046145b15611f40577f00000000000000000000000000000000000000000000000000000000000000009050611fae565b611fab7f00000000000000000000000000000000000000000000000000000000000000007f00000000000000000000000000000000000000000000000000000000000000007f00000000000000000000000000000000000000000000000000000000000000006125be565b90505b90565b60008282604051602001611fc6929190613f69565b60405160208183030381529060405280519060200120905092915050565b60008060418351036120255760008060006020860151925060408601519150606086015160001a9050612019878285856125f8565b9450945050505061202e565b60006002915091505b9250929050565b6000600481111561204957612048613fa0565b5b81600481111561205c5761205b613fa0565b5b0315612198576001600481111561207657612075613fa0565b5b81600481111561208957612088613fa0565b5b036120c9576040517f08c379a00000000000000000000000000000000000000000000000000000000081526004016120c09061401b565b60405180910390fd5b600260048111156120dd576120dc613fa0565b5b8160048111156120f0576120ef613fa0565b5b03612130576040517f08c379a000000000000000000000000000000000000000000000000000000000815260040161212790614087565b60405180910390fd5b6003600481111561214457612143613fa0565b5b81600481111561215757612156613fa0565b5b03612197576040517f08c379a000000000000000000000000000000000000000000000000000000000815260040161218e90614119565b60405180910390fd5b5b50565b60006121bc8473ffffffffffffffffffffffffffffffffffffffff166126da565b15612315578373ffffffffffffffffffffffffffffffffffffffff1663150b7a026121e5611335565b8786866040518563ffffffff1660e01b8152600401612207949392919061418e565b6020604051808303816000875af192505050801561224357506040513d601f19601f8201168201806040525081019061224091906141ef565b60015b6122c5573d8060008114612273576040519150601f19603f3d011682016040523d82523d6000602084013e612278565b606091505b5060008151036122bd576040517f08c379a00000000000000000000000000000000000000000000000000000000081526004016122b490613e48565b60405180910390fd5b805181602001fd5b63150b7a0260e01b7bffffffffffffffffffffffffffffffffffffffffffffffffffffffff1916817bffffffffffffffffffffffffffffffffffffffffffffffffffffffff19161491505061231a565b600190505b949350505050565b606060405180602001604052806000815250905090565b6060612344826112ea565b600061234e612322565b9050600081511161236e5760405180602001604052806000815250612399565b80612378846126fd565b604051602001612389929190613ea4565b6040516020818303038152906040525b915050919050565b600073ffffffffffffffffffffffffffffffffffffffff168273ffffffffffffffffffffffffffffffffffffffff1603612410576040517f08c379a000000000000000000000000000000000000000000000000000000000815260040161240790614268565b60405180910390fd5b61241981611ccf565b15612459576040517f08c379a0000000000000000000000000000000000000000000000000000000008152600401612450906142d4565b60405180910390fd5b612467600083836001611d10565b61247081611ccf565b156124b0576040517f08c379a00000000000000000000000000000000000000000000000000000000081526004016124a7906142d4565b60405180910390fd5b6001600360008473ffffffffffffffffffffffffffffffffffffffff1673ffffffffffffffffffffffffffffffffffffffff16815260200190815260200160002060008282540192505081905550816002600083815260200190815260200160002060006101000a81548173ffffffffffffffffffffffffffffffffffffffff021916908373ffffffffffffffffffffffffffffffffffffffff160217905550808273ffffffffffffffffffffffffffffffffffffffff16600073ffffffffffffffffffffffffffffffffffffffff167fddf252ad1be2c89b69c2b068fc378daa952ba7f163c4a11628f55a4df523b3ef60405160405180910390a46125ba600083836001611e36565b5050565b600083838346306040516020016125d99594939291906142f4565b6040516020818303038152906040528051906020012090509392505050565b6000807f7fffffffffffffffffffffffffffffff5d576e7357a4501ddfe92f46681b20a08360001c11156126335760006003915091506126d1565b6000600187878787604051600081526020016040526040516126589493929190614363565b6020604051602081039080840390855afa15801561267a573d6000803e3d6000fd5b505050602060405103519050600073ffffffffffffffffffffffffffffffffffffffff168173ffffffffffffffffffffffffffffffffffffffff16036126c8576000600192509250506126d1565b80600092509250505b94509492505050565b6000808273ffffffffffffffffffffffffffffffffffffffff163b119050919050565b60606000600161270c846127cb565b01905060008167ffffffffffffffff81111561272b5761272a612fc1565b5b6040519080825280601f01601f19166020018201604052801561275d5781602001600182028036833780820191505090505b509050600082602001820190505b6001156127c0578080600190039150507f3031323334353637383961626364656600000000000000000000000000000000600a86061a8153600a85816127b4576127b36143a8565b5b0494506000850361276b575b819350505050919050565b600080600090507a184f03e93ff9f4daa797ed6e38ed64bf6a1f0100000000000000008310612829577a184f03e93ff9f4daa797ed6e38ed64bf6a1f010000000000000000838161281f5761281e6143a8565b5b0492506040810190505b6d04ee2d6d415b85acef81000000008310612866576d04ee2d6d415b85acef8100000000838161285c5761285b6143a8565b5b0492506020810190505b662386f26fc10000831061289557662386f26fc10000838161288b5761288a6143a8565b5b0492506010810190505b6305f5e10083106128be576305f5e10083816128b4576128b36143a8565b5b0492506008810190505b61271083106128e35761271083816128d9576128d86143a8565b5b0492506004810190505b6064831061290657606483816128fc576128fb6143a8565b5b0492506002810190505b600a8310612915576001810190505b80915050919050565b60405180606001604052806000815260200160608152602001600073ffffffffffffffffffffffffffffffffffffffff1681525090565b6000604051905090565b600080fd5b600080fd5b60007fffffffff0000000000000000000000000000000000000000000000000000000082169050919050565b61299e81612969565b81146129a957600080fd5b50565b6000813590506129bb81612995565b92915050565b6000602082840312156129d7576129d661295f565b5b60006129e5848285016129ac565b91505092915050565b60008115159050919050565b612a03816129ee565b82525050565b6000602082019050612a1e60008301846129fa565b92915050565b600081519050919050565b600082825260208201905092915050565b60005b83811015612a5e578082015181840152602081019050612a43565b60008484015250505050565b6000601f19601f8301169050919050565b6000612a8682612a24565b612a908185612a2f565b9350612aa0818560208601612a40565b612aa981612a6a565b840191505092915050565b60006020820190508181036000830152612ace8184612a7b565b905092915050565b6000819050919050565b612ae981612ad6565b8114612af457600080fd5b50565b600081359050612b0681612ae0565b92915050565b600060208284031215612b2257612b2161295f565b5b6000612b3084828501612af7565b91505092915050565b600073ffffffffffffffffffffffffffffffffffffffff82169050919050565b6000612b6482612b39565b9050919050565b612b7481612b59565b82525050565b6000602082019050612b8f6000830184612b6b565b92915050565b612b9e81612b59565b8114612ba957600080fd5b50565b600081359050612bbb81612b95565b92915050565b60008060408385031215612bd857612bd761295f565b5b6000612be685828601612bac565b9250506020612bf785828601612af7565b9150509250929050565b600081519050919050565b600082825260208201905092915050565b6000819050602082019050919050565b612c3681612ad6565b82525050565b600082825260208201905092915050565b6000612c5882612a24565b612c628185612c3c565b9350612c72818560208601612a40565b612c7b81612a6a565b840191505092915050565b612c8f81612b59565b82525050565b6000606083016000830151612cad6000860182612c2d565b5060208301518482036020860152612cc58282612c4d565b9150506040830151612cda6040860182612c86565b508091505092915050565b6000612cf18383612c95565b905092915050565b6000602082019050919050565b6000612d1182612c01565b612d1b8185612c0c565b935083602082028501612d2d85612c1d565b8060005b85811015612d695784840389528151612d4a8582612ce5565b9450612d5583612cf9565b925060208a01995050600181019050612d31565b50829750879550505050505092915050565b60006020820190508181036000830152612d958184612d06565b905092915050565b600080600060608486031215612db657612db561295f565b5b6000612dc486828701612bac565b9350506020612dd586828701612bac565b9250506040612de686828701612af7565b9150509250925092565b600080fd5b600060408284031215612e0b57612e0a612df0565b5b81905092915050565b600060608284031215612e2a57612e29612df0565b5b81905092915050565b60008060408385031215612e4a57612e4961295f565b5b600083013567ffffffffffffffff811115612e6857612e67612964565b5b612e7485828601612df5565b925050602083013567ffffffffffffffff811115612e9557612e94612964565b5b612ea185828601612e14565b9150509250929050565b600060208284031215612ec157612ec061295f565b5b600082013567ffffffffffffffff811115612edf57612ede612964565b5b612eeb84828501612df5565b91505092915050565b600060208284031215612f0a57612f0961295f565b5b6000612f1884828501612bac565b91505092915050565b612f2a81612ad6565b82525050565b6000602082019050612f456000830184612f21565b92915050565b612f54816129ee565b8114612f5f57600080fd5b50565b600081359050612f7181612f4b565b92915050565b60008060408385031215612f8e57612f8d61295f565b5b6000612f9c85828601612bac565b9250506020612fad85828601612f62565b9150509250929050565b600080fd5b600080fd5b7f4e487b7100000000000000000000000000000000000000000000000000000000600052604160045260246000fd5b612ff982612a6a565b810181811067ffffffffffffffff8211171561301857613017612fc1565b5b80604052505050565b600061302b612955565b90506130378282612ff0565b919050565b600067ffffffffffffffff82111561305757613056612fc1565b5b61306082612a6a565b9050602081019050919050565b82818337600083830152505050565b600061308f61308a8461303c565b613021565b9050828152602081018484840111156130ab576130aa612fbc565b5b6130b684828561306d565b509392505050565b600082601f8301126130d3576130d2612fb7565b5b81356130e384826020860161307c565b91505092915050565b600080600080608085870312156131065761310561295f565b5b600061311487828801612bac565b945050602061312587828801612bac565b935050604061313687828801612af7565b925050606085013567ffffffffffffffff81111561315757613156612964565b5b613163878288016130be565b91505092959194509250565b600080604083850312156131865761318561295f565b5b600061319485828601612bac565b92505060206131a585828601612bac565b9150509250929050565b7f4e487b7100000000000000000000000000000000000000000000000000000000600052602260045260246000fd5b600060028204905060018216806131f657607f821691505b602082108103613209576132086131af565b5b50919050565b7f4552433732313a20617070726f76616c20746f2063757272656e74206f776e6560008201527f7200000000000000000000000000000000000000000000000000000000000000602082015250565b600061326b602183612a2f565b91506132768261320f565b604082019050919050565b6000602082019050818103600083015261329a8161325e565b9050919050565b7f4552433732313a20617070726f76652063616c6c6572206973206e6f7420746f60008201527f6b656e206f776e6572206f7220617070726f76656420666f7220616c6c000000602082015250565b60006132fd603d83612a2f565b9150613308826132a1565b604082019050919050565b6000602082019050818103600083015261332c816132f0565b9050919050565b7f4e487b7100000000000000000000000000000000000000000000000000000000600052601160045260246000fd5b600061336d82612ad6565b915061337883612ad6565b92508282019050808211156133905761338f613333565b5b92915050565b60006133a182612ad6565b91507fffffffffffffffffffffffffffffffffffffffffffffffffffffffffffffffff82036133d3576133d2613333565b5b600182019050919050565b7f4e487b7100000000000000000000000000000000000000000000000000000000600052603260045260246000fd5b7f4552433732313a2063616c6c6572206973206e6f7420746f6b656e206f776e6560008201527f72206f7220617070726f76656400000000000000000000000000000000000000602082015250565b6000613469602d83612a2f565b91506134748261340d565b604082019050919050565b600060208201905081810360008301526134988161345c565b9050919050565b7f57726f6e67207369676e61747572652e00000000000000000000000000000000600082015250565b60006134d5601083612a2f565b91506134e08261349f565b602082019050919050565b60006020820190508181036000830152613504816134c8565b9050919050565b7f496e73756666696369656e7420616d6f756e742073656e740000000000000000600082015250565b6000613541601883612a2f565b915061354c8261350b565b602082019050919050565b6000602082019050818103600083015261357081613534565b9050919050565b600080fd5b600080fd5b600080fd5b600080833560016020038436030381126135a3576135a2613577565b5b80840192508235915067ffffffffffffffff8211156135c5576135c461357c565b5b6020830192506020820236038313156135e1576135e0613581565b5b509250929050565b6000808335600160200384360303811261360657613605613577565b5b80840192508235915067ffffffffffffffff8211156136285761362761357c565b5b60208301925060018202360383131561364457613643613581565b5b509250929050565b60008190508160005260206000209050919050565b60006020601f8301049050919050565b600082821b905092915050565b6000600883026136ae7fffffffffffffffffffffffffffffffffffffffffffffffffffffffffffffffff82613671565b6136b88683613671565b95508019841693508086168417925050509392505050565b6000819050919050565b60006136f56136f06136eb84612ad6565b6136d0565b612ad6565b9050919050565b6000819050919050565b61370f836136da565b61372361371b826136fc565b84845461367e565b825550505050565b600090565b61373861372b565b613743818484613706565b505050565b5b818110156137675761375c600082613730565b600181019050613749565b5050565b601f8211156137ac5761377d8161364c565b61378684613661565b81016020851015613795578190505b6137a96137a185613661565b830182613748565b50505b505050565b600082821c905092915050565b60006137cf600019846008026137b1565b1980831691505092915050565b60006137e883836137be565b9150826002028217905092915050565b61380182612a24565b67ffffffffffffffff81111561381a57613819612fc1565b5b61382482546131de565b61382f82828561376b565b600060209050601f8311600181146138625760008415613850578287015190505b61385a85826137dc565b8655506138c2565b601f1984166138708661364c565b60005b8281101561389857848901518255600182019150602085019450602081019050613873565b868310156138b557848901516138b1601f8916826137be565b8355505b6001600288020188555050505b505050505050565b600081905092915050565b60006138e183856138ca565b93506138ee83858461306d565b82840190509392505050565b60006139078284866138d5565b91508190509392505050565b6000819050919050565b61392681613913565b82525050565b6000604082019050613941600083018561391d565b61394e602083018461391d565b9392505050565b6000808335600160200384360303811261397257613971613577565b5b80840192508235915067ffffffffffffffff8211156139945761399361357c565b5b6020830192506001820236038313156139b0576139af613581565b5b509250929050565b7f4552433732313a20696e76616c696420746f6b656e2049440000000000000000600082015250565b60006139ee601883612a2f565b91506139f9826139b8565b602082019050919050565b60006020820190508181036000830152613a1d816139e1565b9050919050565b7f4552433732313a2061646472657373207a65726f206973206e6f74206120766160008201527f6c6964206f776e65720000000000000000000000000000000000000000000000602082015250565b6000613a80602983612a2f565b9150613a8b82613a24565b604082019050919050565b60006020820190508181036000830152613aaf81613a73565b9050919050565b7f4f776e61626c653a206e6577206f776e657220697320746865207a65726f206160008201527f6464726573730000000000000000000000000000000000000000000000000000602082015250565b6000613b12602683612a2f565b9150613b1d82613ab6565b604082019050919050565b60006020820190508181036000830152613b4181613b05565b9050919050565b7f4552433732313a207472616e736665722066726f6d20696e636f72726563742060008201527f6f776e6572000000000000000000000000000000000000000000000000000000602082015250565b6000613ba4602583612a2f565b9150613baf82613b48565b604082019050919050565b60006020820190508181036000830152613bd381613b97565b9050919050565b7f4552433732313a207472616e7366657220746f20746865207a65726f2061646460008201527f7265737300000000000000000000000000000000000000000000000000000000602082015250565b6000613c36602483612a2f565b9150613c4182613bda565b604082019050919050565b60006020820190508181036000830152613c6581613c29565b9050919050565b7f45524337323155524953746f726167653a2055524920736574206f66206e6f6e60008201527f6578697374656e7420746f6b656e000000000000000000000000000000000000602082015250565b6000613cc8602e83612a2f565b9150613cd382613c6c565b604082019050919050565b60006020820190508181036000830152613cf781613cbb565b9050919050565b7f4f776e61626c653a2063616c6c6572206973206e6f7420746865206f776e6572600082015250565b6000613d34602083612a2f565b9150613d3f82613cfe565b602082019050919050565b60006020820190508181036000830152613d6381613d27565b9050919050565b7f4552433732313a20617070726f766520746f2063616c6c657200000000000000600082015250565b6000613da0601983612a2f565b9150613dab82613d6a565b602082019050919050565b60006020820190508181036000830152613dcf81613d93565b9050919050565b7f4552433732313a207472616e7366657220746f206e6f6e20455243373231526560008201527f63656976657220696d706c656d656e7465720000000000000000000000000000602082015250565b6000613e32603283612a2f565b9150613e3d82613dd6565b604082019050919050565b60006020820190508181036000830152613e6181613e25565b9050919050565b600081905092915050565b6000613e7e82612a24565b613e888185613e68565b9350613e98818560208601612a40565b80840191505092915050565b6000613eb08285613e73565b9150613ebc8284613e73565b91508190509392505050565b6000613ed382612ad6565b9150613ede83612ad6565b9250828203905081811115613ef657613ef5613333565b5b92915050565b7f1901000000000000000000000000000000000000000000000000000000000000600082015250565b6000613f32600283613e68565b9150613f3d82613efc565b600282019050919050565b6000819050919050565b613f63613f5e82613913565b613f48565b82525050565b6000613f7482613f25565b9150613f808285613f52565b602082019150613f908284613f52565b6020820191508190509392505050565b7f4e487b7100000000000000000000000000000000000000000000000000000000600052602160045260246000fd5b7f45434453413a20696e76616c6964207369676e61747572650000000000000000600082015250565b6000614005601883612a2f565b915061401082613fcf565b602082019050919050565b6000602082019050818103600083015261403481613ff8565b9050919050565b7f45434453413a20696e76616c6964207369676e6174757265206c656e67746800600082015250565b6000614071601f83612a2f565b915061407c8261403b565b602082019050919050565b600060208201905081810360008301526140a081614064565b9050919050565b7f45434453413a20696e76616c6964207369676e6174757265202773272076616c60008201527f7565000000000000000000000000000000000000000000000000000000000000602082015250565b6000614103602283612a2f565b915061410e826140a7565b604082019050919050565b60006020820190508181036000830152614132816140f6565b9050919050565b600081519050919050565b600082825260208201905092915050565b600061416082614139565b61416a8185614144565b935061417a818560208601612a40565b61418381612a6a565b840191505092915050565b60006080820190506141a36000830187612b6b565b6141b06020830186612b6b565b6141bd6040830185612f21565b81810360608301526141cf8184614155565b905095945050505050565b6000815190506141e981612995565b92915050565b6000602082840312156142055761420461295f565b5b6000614213848285016141da565b91505092915050565b7f4552433732313a206d696e7420746f20746865207a65726f2061646472657373600082015250565b6000614252602083612a2f565b915061425d8261421c565b602082019050919050565b6000602082019050818103600083015261428181614245565b9050919050565b7f4552433732313a20746f6b656e20616c7265616479206d696e74656400000000600082015250565b60006142be601c83612a2f565b91506142c982614288565b602082019050919050565b600060208201905081810360008301526142ed816142b1565b9050919050565b600060a082019050614309600083018861391d565b614316602083018761391d565b614323604083018661391d565b6143306060830185612f21565b61433d6080830184612b6b565b9695505050505050565b600060ff82169050919050565b61435d81614347565b82525050565b6000608082019050614378600083018761391d565b6143856020830186614354565b614392604083018561391d565b61439f606083018461391d565b95945050505050565b7f4e487b7100000000000000000000000000000000000000000000000000000000600052601260045260246000fdfea2646970667358221220bff0c6dc2543246f36580eaf39d8567964003cdf3fd103eb2d35ec2c59c75c0364736f6c63430008110033",
	"linkReferences": {},
	"deployedLinkReferences": {}
}